:100000000C9436000C945E000C945E000C945E0020
:100010000C945E000C945E000C945E000C945E00E8
:100020000C945E000C945E000C945E000C945E00D8
:100030000C945E000C945E000C945E000C945E00C8
:100040000C9461030C945E000C94D1030C94AB03EC
:100050000C945E000C945E000C945E000C945E00A8
:100060000C945E000C945E000304FE0511241FBE78
:10007000CFEFD8E0DEBFCDBF21E0A0E3B1E001C00B
:100080001D92A13FB207E1F711E0A0E0B1E0E0E985
:10009000F1E102C005900D92A033B107D9F710E04D
:1000A000C5E3D0E004C02197FE010E949F06C4333F
:1000B000D107C9F70E9441040C94BB080C940000BE
:1000C0003FB7F89480913A0190913B01A0913C0197
:1000D000B0913D0126B5A89B05C02F3F19F00196B0
:1000E000A11DB11D3FBFBA2FA92F982F8827820FBE
:1000F000911DA11DB11DBC01CD0142E0660F771F0E
:10010000881F991F4A95D1F708950895CF92DF92DD
:10011000EF92FF920F931F93CF93DF936C017A01BD
:100120008B01C0E0D0E0CE15DF0581F0D8016D91E4
:100130008D01D601ED91FC910190F081E02DC60179
:100140000995892B11F02196EECF7E01C701DF9131
:10015000CF911F910F91FF90EF90DF90CF90089576
:1001600080E090E00895FC01538D448D252F30E010
:10017000842F90E0821B930B541710F0CF960895B4
:1001800001970895FC01918D828D981761F0828D01
:10019000DF01A80FB11D5D968C91928D9F5F9F73BB
:1001A000928F90E008958FEF9FEF0895FC01918D5D
:1001B000828D981731F0828DE80FF11D858D90E0CA
:1001C00008958FEF9FEF0895FC01918D228D892F67
:1001D00090E0805C9F4F821B91098F73992708954F
:1001E0008EE391E00E94E40021E0892B09F420E0F5
:1001F000822F0895FC01848DDF01A80FB11DA35A41
:10020000BF4F2C91848D90E001968F739927848F36
:10021000A689B7892C93A089B1898C918370806459
:100220008C93938D848D981306C00288F389E02DFA
:1002300080818F7D80830895EF92FF920F931F93AB
:10024000CF93DF93EC0181E0888F9B8D8C8D981389
:1002500005C0E889F989808185FD26C0F62E0B8DC1
:1002600010E00F5F1F4F0F731127E02E8C8DE812E7
:100270000CC00FB607FCFACFE889F989808185FFA9
:10028000F5CFCE010E94FA00F1CF8B8DFE01E80F71
:10029000F11DE35AFF4FF0829FB7F8940B8FEA8964
:1002A000FB89808180620AC09FB7F894EE89FF893C
:1002B0006083E889F98980818370806480839FBF2F
:1002C00081E090E0DF91CF911F910F91FF90EF902F
:1002D0000895CF93DF93EC01888D8823C9F0EA89D4
:1002E000FB89808185FD05C0A889B9898C9186FD2F
:1002F0000FC00FB607FCF5CF808185FFF2CFA8892C
:10030000B9898C9185FFEDCFCE010E94FA00E7CF2D
:10031000DF91CF910895CF93DF932091EB0130913E
:10032000EC01232B79F0FC01C091E701D091E801A9
:1003300060817181CE010E94A108009719F08C1B89
:100340009D0B02C08FEF9FEFDF91CF910895CF9368
:10035000DF93EC0188819981009711F00E943D079D
:10036000198218821D821C821B821A82DF91CF9112
:100370000895FC01808191810C943D07CF93DF9318
:10038000EC018091E1019091E201009739F06881E0
:10039000798161157105C9F40E943D0788819981B1
:1003A0009093E2018093E1018A819B819093E40123
:1003B0008093E3018C819D819093E6018093E50118
:1003C000198218821B821A8211C04091E301509158
:1003D000E4012C813D8142175307F0F20E949A08F4
:1003E0008C819D819093E6018093E5011D821C82A2
:1003F000DF91CF9108958091E1019091E201009702
:1004000011F00C940A0660E070E0CB0108950097AB
:1004100069F0FC0101900020E9F73197AF01481B1A
:10042000590BBC018EE391E00C94860080E090E0D3
:1004300008958F929F92AF92BF920F931F93CF9385
:10044000DF93CDB7DEB7A1970FB6F894DEBF0FBE2E
:10045000CDBF19A2423008F44AE08E010F5D1F4F54
:10046000842E912CA12CB12CA50194010E947D0613
:10047000E62FB901CA0101501109EA3014F4E05D18
:1004800001C0E95CD801EC93232B242B252B61F7C9
:10049000C8010E940702A1960FB6F894DEBF0FBEF6
:1004A000CDBFDF91CF911F910F91BF90AF909F90E3
:1004B0008F9008950E948C080F931F93CF93DF9322
:1004C000EC0188819981009729F02A813B812617C8
:1004D000370788F48B016F5F7F4F0E94C607009734
:1004E00061F0998388831B830A832C813D81232BB0
:1004F00011F4FC01108281E001C080E0DF91CF9116
:100500001F910F910895EF92FF920F931F93CF9336
:10051000DF93EC017B018A01BA010E945C02811128
:1005200004C0CE010E94A70107C01D830C83B70140
:10053000888199810E949A08CE01DF91CF911F9105
:100540000F91FF90EF900895CF93DF93EC01611529
:10055000710559F0FB0101900020E9F73197AF01D7
:10056000461B570B0E94830202C00E94A701CE01C6
:10057000DF91CF910895FC011182108213821282C3
:10058000158214826115710551F0FB010190002064
:10059000E9F73197AF01461B570B0C94830208957E
:1005A000CF92DF92EF92FF920F931F93CF93DF933F
:1005B0006C018B017A014617570720F4812F8A01BD
:1005C000E62EF82E60E271E0C6010E94BB02C091E7
:1005D000EB01D091EC010C171D07E0F4EC16FD06C1
:1005E00008F4E701E091E701F091E801EC0FFD1F4D
:1005F000F08010826091E7017091E801600F711F37
:10060000C6010E94A4028091E7019091E801C80F01
:10061000D91FF882C601DF91CF911F910F91FF90F2
:10062000EF90DF90CF900895EF92FF920F931F937A
:10063000CF93DF9300D0CDB7DEB7EE24E3948EE303
:1006400091E00E94E400892B69F18EE391E00E9421
:10065000C200F82E89831A820091DF011091E00117
:100660000F5F1F4FB8018BED91E00E945C02882361
:1006700099F02091DB013091DC018091DF019091B4
:10068000E001BE016F5F7F4F820F931F0E949A08A7
:100690001093E0010093DF018AE0F812D0CFE092DE
:1006A0003401CDCF0F900F90DF91CF911F910F911B
:1006B000FF90EF9008950E94F00081110C941403B4
:1006C00008951F920F920FB60F9211242F933F930C
:1006D0008F939F93AF93BF93809136019091370191
:1006E000A0913801B09139013091350123E0230FF9
:1006F0002D3720F40196A11DB11D05C026E8230F5A
:100700000296A11DB11D209335018093360190936F
:100710003701A0933801B093390180913A0190914B
:100720003B01A0913C01B0913D010196A11DB11D7D
:1007300080933A0190933B01A0933C01B0933D011B
:10074000BF91AF919F918F913F912F910F900FBECD
:100750000F901F9018951F920F920FB60F921124B1
:100760002F933F934F935F936F937F938F939F93B9
:10077000AF93BF93EF93FF938EE391E00E94FA0053
:10078000FF91EF91BF91AF919F918F917F916F9169
:100790005F914F913F912F910F900FBE0F901F903F
:1007A00018951F920F920FB60F9211242F938F93CB
:1007B0009F93EF93FF93E0914E01F0914F01808161
:1007C000E0915401F091550182FD12C09081809119
:1007D00057018F5F8F7320915801821751F0E0917C
:1007E0005701F0E0E25CFE4F958F8093570101C006
:1007F0008081FF91EF919F918F912F910F900FBE6C
:100800000F901F901895EEE3F1E01382128288EEAC
:1008100093E0A0E0B0E084839583A683B7838AE069
:1008200091E09183808385EC90E09587848784ECC8
:1008300090E09787868780EC90E0918B808B81ECAD
:1008400090E0938B828B82EC90E0958B848B86EC8E
:1008500090E0978B868B118E128E138E148E60E231
:1008600071E087EE91E00E94BB0260E271E081EEF0
:1008700091E00E94BB0260E271E08BED91E00C948C
:10088000BB02CF93DF9300D000D000D0CDB7DEB74E
:10089000789484B5826084BD84B5816084BD85B55B
:1008A000826085BD85B5816085BD80916E00816067
:1008B00080936E001092810080918100826080930D
:1008C000810080918100816080938100809180000F
:1008D0008160809380008091B10084608093B1003A
:1008E0008091B00081608093B00080917A00846034
:1008F00080937A0080917A00826080937A00809160
:100900007A00816080937A0080917A008068809379
:100910007A001092C10010923301109232011092AD
:100920003101E0914E01F0914F0182E08083E0912E
:100930004A01F0914B011082E0914C01F0914D0180
:100940008FEC808310925601E0915201F091530197
:1009500086E08083E0915001F091510180818061B7
:100960008083E0915001F091510180818860808303
:10097000E0915001F0915101808180688083E09185
:100980005001F091510180818F7D808368EC70E08F
:100990008BED91E00E945C0260E271E087EE91E0F5
:1009A0000E94A4020E9460004B015C0188EEC82EE8
:1009B00083E0D82EE12CF12C0E946000DC01CB01F9
:1009C00088199909AA09BB09883E9340A105B10578
:1009D00098F321E0C21AD108E108F10888EE880EE8
:1009E00083E0981EA11CB11CC114D104E104F104E0
:1009F00019F788E191E00E9407028EE191E00E94E0
:100A00000702809134018823E1F06091DB0170914D
:100A1000DC016115710549F04091DF015091E00161
:100A200087EE91E00E94830204C087EE91E00E946D
:100A3000A70160E271E08BED91E00E94A4021092A8
:100A400034018091EB019091EC01892B09F4D3C022
:100A5000E091E701F091E8018081882309F4CBC09F
:100A600061E271E0CE0101960E94BB02CE010196C7
:100A70000E948B015C01CE0101960E94B90164E2E3
:100A800071E0CE0101960E94BB02CE0101960E9448
:100A90008B016C01CE0101960E94B90167E271E001
:100AA000CE0101960E94BB02CE0101960E948B01ED
:100AB0007C01CE0101960E94B9016AE271E0CE018B
:100AC00001960E94BB02CE0101960E948B018C010F
:100AD000CE0101960E94B901B5016E5F7F4FA6015C
:100AE000CE0101960E94D002CE0101960E94BE0165
:100AF000CE0101960E94B9010E94FB01609333016F
:100B0000B6016E5F7F4FA701CE0101960E94D00211
:100B1000CE0101960E94BE01CE0101960E94B9014C
:100B20000E94FB0160933201B7016E5F7F4FA80105
:100B3000CE0101960E94D002CE0101960E94BE0114
:100B4000CE0101960E94B9010E94FB016093310120
:100B50004091EB015091EC01B8016E5F7F4FCE01E7
:100B600001960E94D002CE0101960E94BE01CE01E4
:100B700001960E94B9010E94FB01609330016091CF
:100B8000330170E080E090E04AE00E9419028DE2BB
:100B900091E00E9407026091320170E080E090E0F5
:100BA0004AE00E9419028DE291E00E9407026091E2
:100BB000310170E080E090E04AE00E9419028DE28D
:100BC00091E00E9407026091300170E080E090E0C7
:100BD0004AE00E9419028EE191E00E94070260E261
:100BE00071E087EE91E00E94A40260E271E081EE84
:100BF00091E00E94A4020E945B0303CF8BED91E081
:100C00000E94B90181EE91E00E94B90187EE91E066
:100C10000C94B9011F93FC0199278827BC01E89423
:100C200011911032E9F3193010F01E30C8F31B3265
:100C300051F01D3249F4689406C00E943106610FDC
:100C4000711D811D911D119110531A30B0F33EF4A6
:100C500090958095709561957F4F8F4F9F4F1F9115
:100C60000895592F482F372F262F660F771F881F7B
:100C7000991F660F771F881F991F620F731F841FAC
:100C8000951F660F771F881F991F08952F923F9217
:100C90004F925F926F927F928F929F92AF92BF928C
:100CA000CF92DF92EF92FF920F931F93CF93DF9338
:100CB000CDB7DEB7CA1BDB0B0FB6F894DEBF0FBE95
:100CC000CDBF09942A88398848885F846E847D84E2
:100CD0008C849B84AA84B984C884DF80EE80FD80E4
:100CE0000C811B81AA81B981CE0FD11D0FB6F8945A
:100CF000DEBF0FBECDBFED010895A1E21A2EAA1BE3
:100D0000BB1BFD010DC0AA1FBB1FEE1FFF1FA217BB
:100D1000B307E407F50720F0A21BB30BE40BF50BB8
:100D2000661F771F881F991F1A9469F76095709541
:100D3000809590959B01AC01BD01CF010895EE0F08
:100D4000FF1F0590F491E02D09940F931F93CF930B
:100D5000DF938230910510F482E090E0E091EF01A2
:100D6000F091F00120E030E0A0E0B0E0309719F120
:100D7000408151810281138148175907C8F08417B7
:100D8000950769F4109731F012960C931297139609
:100D90001C9327C00093EF011093F00122C021158E
:100DA000310519F04217530718F49A01BD01EF01FC
:100DB000DF01F801DBCF21153105F9F0281B390BD4
:100DC0002430310580F48A819B816115710521F001
:100DD000FB019383828304C09093F0018093EF0121
:100DE000FE01329644C0FE01E20FF31F81939193FE
:100DF00022503109398328833AC02091ED01309186
:100E0000EE01232B41F42091020130910301309334
:100E1000EE012093ED012091000130910101211597
:100E2000310541F42DB73EB74091040150910501C1
:100E3000241B350BE091ED01F091EE01E217F30771
:100E4000A0F42E1B3F0B2817390778F0AC014E5F3A
:100E50005F4F2417350748F04E0F5F1F5093EE0188
:100E60004093ED018193919302C0E0E0F0E0CF0167
:100E7000DF91CF911F910F910895CF93DF9300974A
:100E800009F481C0FC01329713821282A091EF0114
:100E9000B091F001109781F420813181820F931F6E
:100EA0002091ED013091EE012817390751F5F093AB
:100EB000EE01E093ED0167C0ED0120E030E0CE17D8
:100EC000DF0740F44A815B819E0141155105F1F035
:100ED000EA01F5CFD383C28340815181840F951FEE
:100EE000C817D90759F488819981840F951F0296F4
:100EF000918380838A819B8193838283211531052D
:100F000029F4F093F001E093EF013DC0E901FB8388
:100F1000EA8349915991C40FD51FEC17FD0761F47D
:100F200080819181840F951F0296E90199838883BE
:100F3000828193819B838A83E0E0F0E012968D9119
:100F40009C911397009719F0FD01DC01F7CF8D916B
:100F50009C9111979D012E5F3F4F820F931F20910F
:100F6000ED013091EE012817390769F4309729F423
:100F70001092F0011092EF0102C013821282B0931E
:100F8000EE01A093ED01DF91CF910895A0E0B0E0D4
:100F9000ECECF7E00C944A06EC01009721F4CB014D
:100FA0000E94A506B4C0FC01E60FF71F9C01225069
:100FB0003109E217F30708F4A8C0D9010D911C917B
:100FC000119706171707B0F00530110508F49BC0FC
:100FD000C80104978617970708F495C002501109B5
:100FE000061B170B019311936D937C93CF010E9405
:100FF0003D0789C05B01A01AB10A4C01800E911E09
:10100000A091EF01B091F001612C712CE12CF12C39
:10101000109709F446C08D919C911197A815B905B8
:10102000B1F56C0142E0C40ED11CCA14DB0478F1A6
:101030004C018A189B08640142E0C40ED11C129630
:10104000BC9012971396AC91B5E0CB16D10440F04A
:10105000B282A38391828082D9016D937C9309C06F
:101060000E5F1F4F800F911FF90191838083EB2D3D
:10107000FA2FE114F10431F0D7011396FC93EE93AB
:10108000129741C0F093F001E093EF013CC0681665
:10109000790608F43C017D0112960D90BC91A02DBB
:1010A000B7CF8091ED019091EE0188169906E1F499
:1010B00066167706C8F480910001909101010097AF
:1010C00041F48DB79EB74091040150910501841BF6
:1010D000950BE817F907C8F4F093EE01E093ED01E2
:1010E000F901718360830FC0CB010E94A5067C01CA
:1010F000009759F0A801BE010E949108CE010E94FC
:101100003D07C70104C0CE0102C080E090E0CDB72A
:10111000DEB7EEE00C94660681E090E0F8940C9463
:10112000BB08FB01DC0102C001900D924150504010
:10113000D8F70895FB01DC0101900D920020E1F742
:101140000895FB0151915523A9F0BF01DC014D9198
:1011500045174111E1F759F4CD010190002049F004
:101160004D9140154111C9F3FB014111EFCF81E0D1
:1011700090E00197089510E0C5E3D0E004C0FE01BF
:101180000E949F062196C633D107C9F7F894FFCF76
:101190000000F1018000000000001C018600B30087
:1011A0006901E400C200D6005265616479000D0A4D
:1011B00000523A00473A00423A00453A0020000007
:00000001FF
